:020000040000FA
:0600000007EF04F01200FE
:020006000000F8
:06000800CAEF02F0120035
:02000E00708AF6
:100010007088958E959C240E726E900E716E190EDE
:10002000756E1200D9CFE6FFE1CFD9FFE652FD0E83
:10003000DBCFF6FFDB2AFE0EDBCFF7FF01E3DB2A87
:100040000800F550DF6EDF5005E0DFCFE6FF07D890
:10005000E552EDD7E552E552E7CFD9FF1200D9CFEF
:10006000E6FFE1CFD9FF72A2FED7FE0EDB50736E22
:10007000E552E7CFD9FF120071A202D071987188C2
:10008000745000D01200D9CFE6FFE1CFD9FFE6527D
:10009000FE0EDB50DF6EFE0EDB380F0B0F0BE76E34
:1000A000FE0EE7CFDBFFDB50F76A460FF66E080E59
:1000B000F7220800F550E66ED2DFE5520F0EDF148E
:1000C000E76EFE0EE7CFDBFFDB50F76A460FF66EFA
:1000D000080EF7220800F550E66EC1DFE55200D0A9
:1000E000E552E552E7CFD9FF1200D9CFE6FFE1CFC5
:1000F000D9FF640EF36EFE0EDBCFF4FFF350F45C19
:1001000014E3640E106E10C00CF0FE0EDBCF07F08F
:1001100015EC04F00750F76A460FF66E080EF7224A
:100120000800F550E66E9BDFE5520A0EF36EFE0EF8
:10013000DBCFF4FFF350F45C1EE3640E116E11C0CC
:100140000CF0FE0EDBCF07F015EC04F003C010F04E
:100150000A0E126E12C00CF010C007F015EC04F07D
:100160000750F76A460FF66E080EF7220800F550A2
:10017000E66E75DFE5520A0E106E10C00CF0FE0E32
:10018000DBCF07F015EC04F00350F76A460FF66E6C
:10019000080EF7220800F550E66E61DFE552E552E1
:1001A000E7CFD9FF1200948E949C240EAC6E900E73
:1001B000AB6E0C0EAF6E1200D9CFE6FFE1CFD9FFC8
:1001C000E652FD0EDBCFF6FFDB2AFE0EDBCFF7FF9C
:1001D00001E3DB2A0800F550DF6EDF5005E0DFCFDA
:1001E000E6FF23D8E552EDD7E552E552E7CFD9FF38
:1001F0001200D9CFE6FFE1CFD9FFE652FD0EDBCFEB
:10020000E9FFDB2AFE0EDBCFEAFF01E3DB2AEFCFBB
:10021000DFFFDF5005E0DFCFE6FF07D8E552EED77E
:10022000E552E552E7CFD9FF1200D9CFE6FFE1CF83
:10023000D9FFACA2FED7FE0EDB50AD6EE552E7CF84
:10024000D9FF1200ABA202D0AB98AB88AE5000D061
:100250001200D9CFE6FFE1CFD9FFE652FE0EDB5008
:10026000DF6EFE0EDB380F0B0F0BE76EFE0EE7CFD7
:10027000DBFFDB50F76A460FF66E080EF722080028
:10028000F550E66ED2DFE5520F0EDF14E76EFE0E7C
:10029000E7CFDBFFDB50F76A460FF66E080EF7225A
:1002A0000800F550E66EC1DFE55200D0E552E55298
:1002B000E7CFD9FF1200D9CFE6FFE1CFD9FF640E17
:1002C000F36EFE0EDBCFF4FFF350F45C14E3640E28
:1002D000106E10C00CF0FE0EDBCF07F015EC04F032
:1002E0000750F76A460FF66E080EF7220800F55021
:1002F000E66E9BDFE5520A0EF36EFE0EDBCFF4FFD7
:10030000F350F45C1EE3640E116E11C00CF0FE0E8F
:10031000DBCF07F015EC04F003C010F00A0E126EEC
:1003200012C00CF010C007F015EC04F00750F76A8B
:10033000460FF66E080EF7220800F550E66E75DFE0
:10034000E5520A0E106E10C00CF0FE0EDBCF07F067
:1003500015EC04F00350F76A460FF66E080EF7220C
:100360000800F550E66E61DFE552E552E7CFD9FFB0
:02037000120079
:0E037200D9CFE6FFE1CFD9FF040EE12679D006
:10038000FB0EDBCF10F0FC0EDBCF11F0FD0EDBCF50
:1003900012F0FE0EDBCF13F00A0E096E0A6A0B6A2A
:1003A0000C6A10C004F011C005F012C006F013C0B2
:1003B00007F0ACEC03F000C010F001C011F002C077
:1003C00012F003C013F010C0DFFF010E11C0DBFFFD
:1003D000020E12C0DBFF030E13C0DBFFD9CFE9FF13
:1003E000DACFEAFFAF0EEE5E000EEE5A000EEE5AC6
:1003F000000EEE5ADECF05F0DECF06F0DECF07F0BE
:10040000DDCF08F0DD52DD520834000E081809E691
:10041000D8802D0E0554000E0654000E0754000E11
:10042000085401E326D0DECF05F0DECF06F0DECFA4
:1004300007F0DDCF08F0DD52DD520834000E081859
:1004400009E6D880000E0554000E0654000E07542D
:10045000000E08540EE20000D9CFE9FFDACFEAFF20
:100460002A0EEE5E000EEE5A000EEE5A000EEE5A06
:10047000DAD7040EE15C02E2E16AE552E16EE55290
:10048000E7CFD9FF1200D9CFE6FFE1CFD9FF040EA5
:10049000E126FD0EDBCF10F0FE0EDBCF11F0126A6D
:1004A000136AE80E096E030E0A6E0B6A0C6A10C01E
:1004B00004F011C005F012C006F013C007F0ACEC58
:1004C00003F000C010F001C011F002C012F003C030
:1004D00013F010C0DFFF010E11C0DBFF020E12C0CF
:1004E000DBFF030E13C0DBFFD9CFE9FFDACFEAFF52
:1004F000AA0EEE5E000EEE5A000EEE5A000EEE5AF6
:10050000DECF05F0DECF06F0DECF07F0DDCF08F05E
:10051000DD52DD520834000E081809E6D880C30EFB
:100520000554000E0654000E0754000E085402E352
:1005300027D026D0DECF05F0DECF06F0DECF07F0E5
:10054000DDCF08F0DD52DD520834000E081809E650
:10055000D880000E0554000E0654000E0754000EFD
:1005600008540EE20000D9CFE9FFDACFEAFF270EE8
:10057000EE5E000EEE5A000EEE5A000EEE5ADAD77C
:10058000040EE15C02E2E16AE552E16EE552E7CF7A
:04059000D9FF12007D
:0C059400DACFE4FFE2CFDAFF6CC0E4FF36
:1005A0006DC0E4FFE652E552E5CF6DF0E5CF6CF0AB
:1005B000E5CFDAFF11000F01386B806AC00E926E32
:1005C000396B816A936A3A6B826A8290FE0E946EEE
:1005D0003B6B836A95683C6B846A060E966E8080DE
:1005E000809480968098D09EF29C9D8AA38AF29EE9
:1005F0001200E1DFD3EC00F007EC00F0C80EE66E6D
:10060000070EE66EDCEC00F0E552E5528250800BFE
:10061000800A01E0010E106E8250400B400A01E09A
:10062000010E101002E0808801D08098A4AA2ED07C
:1006300074CF6BF000016BBF06D06BC0E6FF15EC0A
:1006400001F0E55223D06BAD0AD0070E6B15200DDB
:10065000F3CF10F01F0E81141010816E0CD01F0EFE
:100660006B15106EE00E81141010816E6BAB02D012
:10067000808601D08096360E811407E08050080BEA
:1006800002E0828001D0829001D082909EAA13D095
:10069000AECF6AF06AC0E6FF2FEC00F0E5523F0EE5
:1006A00000016A5D08E1560EE66E080EE66EDCECAF
:0A06B00000F0E552E552AAD712004F
:0606BA00060EF66E000EB4
:1006C000F76E000EF86E00010900F550656F090025
:1006D000F550666F03E1656701D03DD00900F55024
:1006E000606F0900F550616F0900F550626F0900F5
:1006F0000900F550E96E0900F550EA6E090009009D
:100700000900F550636F0900F550646F0900090096
:10071000F6CF67F0F7CF68F0F8CF69F060C0F6FF6A
:1007200061C0F7FF62C0F8FF0001635302E1645348
:1007300007E00900F550EE6E6307F8E26407F9D7A9
:1007400067C0F6FF68C0F7FF69C0F8FF00016507E2
:08075000000E665BBFD712002A
:0807580004500902F3CF00F088
:10076000F4CF01F00A02F3500126000EF420026ECD
:1007700004500B02F3500226000EF420036E0450C6
:100780000C02F350032605500902F3500126F450E1
:100790000222000E032205500A02F3500226F450F2
:1007A000032205500B02F350032606500902F350B2
:1007B0000226F450032206500A02F3500326075083
:0807C0000902F35003261200A8
:0807C8000D0A20446967697401
:1007D000696D65722076657A65726C6F2C206F701A
:0E07E000657261746F7220726F6F6D0D0A008A
:0207EE00000EFB
:1007F000F36E00EE00F0060E01D81200EA6002D09F
:0E080000EE6AFCD7F350E9601200EE6AFCD7F6
:02080E0015EEE5
:1008100000F025EE00F0F86A0F9C5DEC03F02DEC83
:0A08200004F0F9EC02F0FBD712001F
:06082A00036A080EE76EF0
:10083000D890073603360C50035C02E3036E072A98
:06084000E72EF7D71200BD
:0A084600303132333435363738399B
:060850004142434445460D
:030856006F6B00C5
:02085A0012008A
:00000001FF
