:020000040000FA
:06000000F5EF08F012000C
:020006001200E6
:060008000EEF00F01200F3
:02000E000100EF
:0C00100058120000190E0000050000004E
:04001C00DACFE4FF54
:10002000E2CFDAFFE9CFE4FFEACFE4FFF6CFE4FF67
:10003000F7CFE4FFF5CFE4FFF3CFE4FFF4CFE4FF25
:10004000FACFE4FF00EE00F0100EE80403E3EECF79
:10005000E4FFFBD700EE10F00C0EE80403E3EECF54
:10006000E4FFFBD70CCEE4FF0DCEE4FFE6529EA2E8
:1000700055D00F0E80141D6E200E8014E8407F0BAB
:100080001C6E200E82141C101D100E010B6F800EB2
:100090000B11E66E5CEC04F0E552180E82141C6E37
:1000A000070E84141C100E010B6FC00E0B11E66EB0
:1000B0005CEC04F0E5520E011B071B512EE1080E0B
:1000C0001B6F0E010EA90CD00E01192B195108E15E
:1000D0000E010E990E510E91040B01E00E818392D8
:1000E0000E010EAB02D00E011A2B0E011A5115E1B2
:1000F0000E010E9B0E510E93080B01E00E830E5164
:10010000100B01E0010E1C6E0E51020B01E0010EFE
:100110001C1403E00E910E9983929E92E552E5CF56
:100120000DFEE5CF0CFE00EE1BF00C0EE80403E321
:10013000E5CFEDFFFBD700EE0FF0100EE80403E370
:10014000E5CFEDFFFBD7E5CFFAFFE5CFF4FFE5CF35
:10015000F3FFE5CFF5FFE5CFF7FFE5CFF6FFE5CFFE
:10016000EAFFE5CFE9FFE5CFDAFF1100D0CF09FEC6
:10017000130ED06E0E010E910E930E950E970E99E2
:100180000E9B0E9D0E9F0F015D6B5C6B806A9268EB
:10019000816A9368826ADF0E946EE10E956E839099
:1001A000846A070E966E8392839683943F0ECA6E7E
:1001B000E66ACF0EE66E6DEC08F0E552E5521CCE15
:1001C000E6FF1DCEE6FF18EC08F0E552E55227ECFD
:1001D00009F0210EC26E200EC16EB90EC06E0F0165
:1001E0005D6B010E5C6FD09EF28C9D8A9D82F29EAB
:1001F00012000E01BD0E1C6F010E1D6F1CCEE6FF1E
:100200001DCEE6FF18EC08F0E552E552839095907C
:10021000F40EE66E010EE66E70EC06F0E552E55265
:1002200095808250080B080A01E0010E106E825082
:10023000100B01E0010E101403E0010E03D002D0F8
:10024000000E00D012000E01150E1C6F010E1D6F66
:100250001CCEE6FF1DCEE6FF18EC08F0E552E55295
:1002600083909590F40EE66E010EE66E70EC06F04B
:10027000E552E55295808250080B01E0010E106EA8
:100280008250100B100A01E0010E101403E0010E61
:1002900003D002D0000E00D012002AEC09F022ECAC
:1002A00009F0000901E0FBD711EC09F0F3CF10F0E1
:1002B000F4CF11F0E80E105E030E115A140E0D6EFD
:1002C0000E6A10C008F011C009F047EC08F008C031
:1002D00010F009C011F010C0F3FF11C0F4FF00D0FE
:1002E000120044DF18EC04F0000EE66E0E0EE66E0F
:1002F00009CE10F0116A10BE116810C0E6FF11C0DF
:10030000E6FFF7EC06F0E552E552E552E5522F0E16
:10031000E66E110EE66E23EC04F0E552E552000E97
:10032000E66E0E0EE66E40EC04F0E552E552270E46
:10033000E66E110EE66E23EC04F0E552E552F28E05
:100340000E010E51010B106E0E010E51100B01E04B
:10035000010E101448E08250020B020A01E0010E67
:100360001B6E0E011951196E1A6A1A3404E21950E3
:10037000F208000E1A5402E3000E01D0010E1B1405
:10038000186E0E011951166E176AD890175004E6B0
:10039000E80E165C000E175802E3000E01D0010EA5
:1003A000156E0E011951136E146A143404E21350C1
:1003B000E508000E145402E3000E01D0010E1514DE
:1003C000126E0E011951106E116AD40E101801E14F
:1003D000115002E0000E01D0010E1210181002E0C0
:1003E000838201D083928250010B106E0E010E5158
:1003F000040B01E0010E101811E00E010E95825061
:10040000010B01E00E850E01010E196F0E010EA504
:1004100003D00E01FD0E196F0E010E898250200BC4
:1004200001E0010E106E0E010E51080B01E0010EED
:1004300010180BE00E010E978250200B01E00E8782
:100440000E01FD0E1A6F0E010E8B0E010E010E51E4
:10045000020B020A01E0010E116E9450040B040A13
:1004600001E0010E106E0E010E51010B1018111457
:100470001FE02C0EE66E010EE66E70EC06F0E55203
:10048000E5520E010E010E51010B02E0949401D0D1
:10049000948494B483920E010EA10AD0D4DEA00EEF
:1004A000E66E0F0EE66E70EC06F0E552E552A1DE48
:1004B0000E010E010E51020B020A01E0010E116E37
:1004C0009450040B040A01E0010E106E0E010E019F
:1004D0000E51010B010A1014111401E09484A4AA16
:1004E000A5D17ACF0AFE7A502D0A01E173D1030A11
:1004F00001E144D1570A01E10FD14B0A01E1FFD0DC
:10050000030A01E1EFD07E0A01E1D7D01F0A6CE0B7
:10051000680A55E0010A3EE0750A27E0180A01E082
:1005200085D1000EE66E0E0EE66EB7DEF3CF10F04C
:10053000F4CF11F010C0E6FF11C0E6FFF7EC06F0B3
:10054000E552E552E552E552240EE66E110EE66ED6
:1005500023EC04F0E552E552000EE66E0E0EE66E58
:1005600040EC04F0E552E55261D10E010EA309D032
:10057000970EE66E110EE66E23EC04F0E552E5529E
:1005800008D0930EE66E110EE66E23EC04F0E552F1
:10059000E5524CD12EDE000909E0900EE66E110EF8
:1005A000E66E23EC04F0E552E55208D0930EE66EB9
:1005B000110EE66E23EC04F0E552E55237D143DE2E
:1005C000000909E08C0EE66E110EE66E23EC04F0D5
:1005D000E552E55208D0930EE66E110EE66E23EC5E
:1005E00004F0E552E55222D10E010EB309D0870E78
:1005F000E66E110EE66E23EC04F0E552E55216D1DC
:1006000094A40FD0FA0EE66EE66A70EC06F0E5529E
:10061000E5529494FA0EE66EE66A70EC06F0E55246
:10062000E5528450020B01E0010E106E8050080B61
:1006300001E0010E101409E1820EE66E110EE66E65
:1006400023EC04F0E552E552F1D08250080B01E0B2
:10065000010E116E8450040B01E0010E106E8050EB
:10066000010B1010111020E0EEDD000909E17D0EF4
:10067000E66E110EE66E23EC04F0E552E552D6D09C
:10068000A00EE66E0F0EE66E70EC06F0E552E55237
:10069000B0DD000909E1780EE66E110EE66E23EC7E
:1006A00004F0E552E552C2D0740EE66E110EE66E0D
:1006B00023EC04F0E552E552B9D00E010EB110D092
:1006C000FA0EE66EE66A70EC06F0E552E5529484A6
:1006D000700EE66E110EE66E23EC04F0E552E55264
:1006E000A5D0A4D083860000000083966B0EE66E32
:1006F000110EE66E23EC04F0E552E55297D08384A8
:10070000000000008394650EE66E110EE66E23EC89
:1007100004F0E552E5528AD09590C30E0E011C19E3
:1007200002E1010E1D1906E10E012B0E1C6F010ED8
:100730001D6F05D00E01C30E1C6F010E1D6F1CCE68
:10074000E6FF1DCEE6FF18EC08F0E552E552000E7C
:10075000E66E0E0EE66E1CCEE6FF1DCEE6FFF7EC53
:1007600006F0E552E552E552E552000EE66E0E0E39
:10077000E66E40EC04F0E552E55258D09B0EE66E72
:10078000110EE66E23EC04F0E552E5520E011C2B2F
:10079000000E0E011D231CCEE6FF1DCEE6FF18EC59
:1007A00008F0E552E552000EE66E0E0EE66E1CCE27
:1007B000E6FF1DCEE6FFF7EC06F0E552E552E55206
:1007C000E552000EE66E0E0EE66E40EC04F0E552C9
:1007D000E5522CD09B0EE66E110EE66E23EC04F073
:1007E000E552E5520E011C07000E0E011D5B1CCEEA
:1007F000E6FF1DCEE6FF18EC08F0E552E552000ECC
:10080000E66E0E0EE66E1CCEE6FF1DCEE6FFF7ECA2
:1008100006F0E552E552E552E552000EE66E0E0E88
:10082000E66E40EC04F0E552E55200D089D51200A6
:10083000B98AB988958E959C240EBA6E900EA66ED4
:10084000190E7B6E1200D9CFE6FFE1CFD9FFE65239
:10085000FD0EDBCFF6FFDB2AFE0EDBCFF7FF01E359
:10086000DB2A0800F550DF6EDF5005E0DFCFE6FF42
:1008700023D8E552EDD7E552E552E7CFD9FF120074
:10088000D9CFE6FFE1CFD9FFE652FD0EDBCFE9FF7E
:10089000DB2AFE0EDBCFEAFF01E3DB2AEFCFDFFF2F
:1008A000DF5005E0DFCFE6FF07D8E552EED7E5528F
:1008B000E552E7CFD9FF1200D9CFE6FFE1CFD9FF4C
:1008C000BAA2FED7FE0EDB50796EE552E7CFD9FF14
:1008D0001200A6A202D0A698A6887A5000D01200D4
:1008E000D9CFE6FFE1CFD9FFE652FE0EDB50DF6E37
:1008F000FE0EDB380F0B0F0BE76EFE0EE7CFDBFFB4
:10090000DB50F76A340FF66E120EF7220800F5502E
:10091000E66ED2DFE5520F0EDF14E76EFE0EE7CF74
:10092000DBFFDB50F76A340FF66E120EF722080079
:10093000F550E66EC1DFE55200D0E552E552E7CF53
:10094000D9FF1200D9CFE6FFE1CFD9FF640EF36ED5
:10095000FE0EDBCFF4FFF350F45C14E3640E106E74
:1009600010C00EF0FE0EDBCF09F003EC09F00950C9
:10097000F76A340FF66E120EF7220800F550E66E95
:100980009BDFE5520A0EF36EFE0EDBCFF4FFF35051
:10099000F45C1EE3640E116E11C00EF0FE0EDBCF90
:1009A00009F003EC09F005C010F00A0E126E12C037
:1009B0000EF010C009F003EC09F00950F76A340F8B
:1009C000F66E120EF7220800F550E66E75DFE5525E
:1009D0000A0E106E10C00EF0FE0EDBCF09F003EC15
:1009E00009F00550F76A340FF66E120EF722080070
:1009F000F550E66E61DFE552E552E7CFD9FF120010
:100A0000948E949C240EAC6E900EAB6E0C0EAF6E5A
:100A10001200D9CFE6FFE1CFD9FFE652FD0EDBCFC2
:100A2000F6FFDB2AFE0EDBCFF7FF01E3DB2A08002F
:100A3000F550DF6EDF5005E0DFCFE6FF23D8E5524B
:100A4000EDD7E552E552E7CFD9FF1200D9CFE6FF47
:100A5000E1CFD9FFE652FD0EDBCFE9FFDB2AFE0E28
:100A6000DBCFEAFF01E3DB2AEFCFDFFFDF5005E05A
:100A7000DFCFE6FF07D8E552EED7E552E552E7CFE4
:100A8000D9FF1200D9CFE6FFE1CFD9FFACA2FED744
:100A9000FE0EDB50AD6EE552E7CFD9FF1200ABA2E0
:100AA00002D0AB98AB88AE5000D01200D9CFE6FF91
:100AB000E1CFD9FFE652FE0EDB50DF6EFE0EDB38D3
:100AC0000F0B0F0BE76EFE0EE7CFDBFFDB50F76A75
:100AD000340FF66E120EF7220800F550E66ED2DFE4
:100AE000E5520F0EDF14E76EFE0EE7CFDBFFDB50A3
:100AF000F76A340FF66E120EF7220800F550E66E14
:100B0000C1DFE55200D0E552E552E7CFD9FF120030
:100B1000D9CFE6FFE1CFD9FF640EF36EFE0EDBCF37
:100B2000F4FFF350F45C14E3640E106E10C00EF08A
:100B3000FE0EDBCF09F003EC09F00950F76A340F21
:100B4000F66E120EF7220800F550E66E9BDFE552B6
:100B50000A0EF36EFE0EDBCFF4FFF350F45C1EE3DF
:100B6000640E116E11C00EF0FE0EDBCF09F003EC27
:100B700009F005C010F00A0E126E12C00EF010C07F
:100B800009F003EC09F00950F76A340FF66E120E03
:100B9000F7220800F550E66E75DFE5520A0E106E7A
:100BA00010C00EF0FE0EDBCF09F003EC09F005508B
:100BB000F76A340FF66E120EF7220800F550E66E53
:0C0BC00061DFE552E552E7CFD9FF1200DB
:040BCC00D9CFE6FF98
:100BD000E1CFD9FF040EE12679D0FB0EDBCF10F078
:100BE000FC0EDBCF11F0FD0EDBCF12F0FE0EDBCFE3
:100BF00013F00A0E0B6E0C6A0D6A0E6A10C006F036
:100C000011C007F012C008F013C009F0E0EC07F0C3
:100C100002C010F003C011F004C012F005C013F0C0
:100C200010C0DFFF010E11C0DBFF020E12C0DBFFA0
:100C3000030E13C0DBFFD9CFE9FFDACFEAFFAF0E17
:100C4000EE5E000EEE5A000EEE5A000EEE5ADECFA9
:100C500007F0DECF08F0DECF09F0DDCF0AF0DD527D
:100C6000DD520A34000E0A1809E6D8802D0E07540A
:100C7000000E0854000E0954000E0A5401E326D059
:100C8000DECF07F0DECF08F0DECF09F0DDCF0AF0CF
:100C9000DD52DD520A34000E0A1809E6D880000E33
:100CA0000754000E0854000E0954000E0A540EE2B8
:100CB0000000D9CFE9FFDACFEAFF2A0EEE5E000E80
:100CC000EE5A000EEE5A000EEE5ADAD7040EE15C30
:100CD00002E2E16AE552E16EE552E7CFD9FF120088
:100CE000D9CFE6FFE1CFD9FF040EE126FD0EDBCF21
:100CF00010F0FE0EDBCF11F0126A136AE80E0B6ED5
:100D0000030E0C6E0D6A0E6A10C006F011C007F0DB
:100D100012C008F013C009F0E0EC07F002C010F0B8
:100D200003C011F004C012F005C013F010C0DFFFC3
:100D3000010E11C0DBFF020E12C0DBFF030E13C059
:100D4000DBFFD9CFE9FFDACFEAFFAA0EEE5E000E95
:100D5000EE5A000EEE5A000EEE5ADECF07F0DECF4E
:100D600008F0DECF09F0DDCF0AF0DD52DD520A34A3
:100D7000000E0A1809E6D880C30E0754000E085466
:100D8000000E0954000E0A5402E327D026D0DECF0D
:100D900007F0DECF08F0DECF09F0DDCF0AF0DD523C
:100DA000DD520A34000E0A1809E6D880000E0754F6
:100DB000000E0854000E0954000E0A540EE2000002
:100DC000D9CFE9FFDACFEAFF270EEE5E000EEE5A2A
:100DD000000EEE5A000EEE5ADAD7040EE15C02E283
:0E0DE000E16AE552E16EE552E7CFD9FF12005D
:020DEE00D9CF5B
:100DF000E6FFDACFE6FFFA0EE3CFD9FFFB0EE3CF33
:100E0000DAFFFD0EE35209E72D0EDE6EFC0EE31E47
:100E1000E32AFD0ED8B4E306E31EE652E652E6529C
:100E2000FD0EE124E76EFF0EE220E46EE652F70EBF
:100E3000E3CFE6FFF70EE3CFE6FF67EC07F0F90E2E
:100E4000E124E96EFF0EE220EA6E57EC07F00AE1BA
:100E500054EC07F009E157EC07F008E154EC07F017
:100E600007E108D062EC07F05DEC07F062EC07F0F8
:100E70005DEC07F062EC07F0DE6AF90EE126FF0E8A
:100E8000E222FF0EE3CFDAFFE552FF0EE3CFD9FFF8
:100E9000E552FC0EE124E96EFF0EE220EA6EEECF91
:100EA000F3FFEFCFF4FF1200EF380F0B1200EF50FB
:100EB0000F0B02E1EE52D8841200EF380F0B300F07
:100EC000DE6E1200EE500F0B300FDE6E1200FC0EC5
:100ED000E3CFE9FFFD0EE3CFEAFF100EE66EEE6A08
:100EE000EE6AEF6AD890FD0EE336FE0EE336ED367D
:100EF000ED36EF36FF0EE30609E088EC07F0EE5220
:100F000088EC07F0EE5288EC07F0EDD7E56E1200A2
:100F1000030EEF24E8B6EF6E300EEF24E8BEEF6E5E
:020F2000000CC3
:0E0F22000E0EF66E000EF76E000EF86E0E014B
:100F30000900F550146F0900F550156F03E11467AF
:100F400001D03DD00900F5500F6F0900F550106F2A
:100F50000900F550116F09000900F550E96E09000C
:100F6000F550EA6E090009000900F550126F0900FA
:100F7000F550136F09000900F6CF16FEF7CF17FEE4
:100F8000F8CF18FE0FCEF6FF10CEF7FF11CEF8FF08
:100F90000E01125302E1135307E00900F550EE6E03
:100FA0001207F8E21307F9D716CEF6FF17CEF7FFB0
:100FB00018CEF8FF0E011407000E155BBFD7120004
:100FC00006500B02F3CF02F0F4CF03F00C02F35003
:100FD0000326000EF420046E06500D02F350042682
:100FE000000EF420056E06500E02F3500526075041
:100FF0000B02F3500326F4500422000E0522075082
:101000000C02F3500426F450052207500D02F35051
:10101000052608500B02F3500426F4500522085010
:101020000C02F350052609500B02F350052612005E
:10103000D9CFE6FFDACFE6FFE1CFD9FFE2CFDAFF83
:10104000E652E652FC0EDBCF10F0FD0EDBCF11F0C6
:10105000060ED89010361136E804FBE110C0DEFF12
:1010600011C0DDFF010EDB50BC6EDF50E840E840F0
:101070003F0B300B106ECF0EBB141010BB6EE55241
:0E108000E552E552E5CFDAFFE7CFD9FF1200C7
:02108E00006AF6
:101090000EAE50EF08F00D6C0E1EE86A0E22001E18
:1010A00009AE58EF08F0086C091EE86A0922001E14
:1010B000CFEC08F009BE68EF08F000AE000C086C39
:1010C000091EE86A0922046C051EE86A0522000C64
:0A10D00000BE5FEF08F00188FF0C7E
:0610DA00D9CFE6FFDACFDA
:1010E000E6FFE1CFD9FFE2CFDAFF0C0EBB6E999895
:1010F000FC0EDB50100BE8380F0B991299A006D0AC
:101100008894FD0EDB50A96E888405D0CA94FD0E2C
:10111000DB50CB6ECA84E552E5CFDAFFE7CFD9FFCB
:021120001200BB
:0E1122000D000D0A000D0A204F6B0D0A000D86
:101130000A204469676974696D65722076657A650D
:10114000726C6F2C206578616D20726F6F6D2062FC
:101150006574612076312E312E200D0A2072657360
:0511600065743A200057
:0B116500746F756368007061696E00B4
:101170006F666600707772006572726500657272E4
:10118000640065727270006C6964210064697300A8
:0E119000656E00657272006C6964000D0A00E5
:02119E00056AE0
:1011A000046A100EE76ED890083609360436053604
:1011B0000D50045C0E50055805E30D50045E0E50B2
:0A11C000055A082AE72EF0D71200A6
:0611CA00410EF36E00EE81
:1011D00000F00E0E01D81200EA6002D0EE6AFCD7D1
:0A11E000F350E9601200EE6AFCD73C
:0611EA001DEE00F02DEEE9
:1011F00000F0F86A019C91EC07F003EC00F071EC50
:0612000001F0FBD7120013
:0A120600056A080EE76ED89009365D
:1012100005360E50055C02E3056E092AE72EF7D766
:021220001200BA
:0E122200C450136E126AC3501210F36E13C044
:04123000F4FF1200B5
:0C1234003031323334353637383941421E
:041240004344454698
:0A124400C250020B01E0010E12007F
:02124E00C2904C
:041250009D9C12004F
:04125400C282120040
:051258000000087A010E
:00000001FF
